{
  "_format": "hh-sol-artifact-1",
  "contractName": "MyEpicGame",
  "sourceName": "contracts/MyEpicGame.sol",
  "abi": [
    {
      "inputs": [
        {
          "internalType": "string[]",
          "name": "characterNames",
          "type": "string[]"
        },
        {
          "internalType": "string[]",
          "name": "characterImageURIs",
          "type": "string[]"
        },
        {
          "internalType": "uint256[]",
          "name": "characterHp",
          "type": "uint256[]"
        },
        {
          "internalType": "uint256[]",
          "name": "characterAttackDmg",
          "type": "uint256[]"
        },
        {
          "internalType": "uint256[]",
          "name": "characterCriticalRate",
          "type": "uint256[]"
        },
        {
          "internalType": "string",
          "name": "bossName",
          "type": "string"
        },
        {
          "internalType": "string",
          "name": "bossImageURI",
          "type": "string"
        },
        {
          "internalType": "uint256",
          "name": "bossHp",
          "type": "uint256"
        },
        {
          "internalType": "uint256",
          "name": "bossAttackDamage",
          "type": "uint256"
        },
        {
          "internalType": "uint256",
          "name": "bossCriticalRate",
          "type": "uint256"
        }
      ],
      "stateMutability": "nonpayable",
      "type": "constructor"
    },
    {
      "anonymous": false,
      "inputs": [
        {
          "indexed": true,
          "internalType": "address",
          "name": "owner",
          "type": "address"
        },
        {
          "indexed": true,
          "internalType": "address",
          "name": "approved",
          "type": "address"
        },
        {
          "indexed": true,
          "internalType": "uint256",
          "name": "tokenId",
          "type": "uint256"
        }
      ],
      "name": "Approval",
      "type": "event"
    },
    {
      "anonymous": false,
      "inputs": [
        {
          "indexed": true,
          "internalType": "address",
          "name": "owner",
          "type": "address"
        },
        {
          "indexed": true,
          "internalType": "address",
          "name": "operator",
          "type": "address"
        },
        {
          "indexed": false,
          "internalType": "bool",
          "name": "approved",
          "type": "bool"
        }
      ],
      "name": "ApprovalForAll",
      "type": "event"
    },
    {
      "anonymous": false,
      "inputs": [
        {
          "indexed": false,
          "internalType": "uint256",
          "name": "newBossHp",
          "type": "uint256"
        },
        {
          "indexed": false,
          "internalType": "uint256",
          "name": "newPlayerHp",
          "type": "uint256"
        }
      ],
      "name": "AttackComplete",
      "type": "event"
    },
    {
      "anonymous": false,
      "inputs": [
        {
          "indexed": false,
          "internalType": "address",
          "name": "sender",
          "type": "address"
        },
        {
          "indexed": false,
          "internalType": "uint256",
          "name": "tokenId",
          "type": "uint256"
        },
        {
          "indexed": false,
          "internalType": "uint256",
          "name": "characterIndex",
          "type": "uint256"
        }
      ],
      "name": "CharacterNFTMinted",
      "type": "event"
    },
    {
      "anonymous": false,
      "inputs": [
        {
          "indexed": false,
          "internalType": "uint256",
          "name": "critHitAmount",
          "type": "uint256"
        }
      ],
      "name": "CriticalHit",
      "type": "event"
    },
    {
      "anonymous": false,
      "inputs": [
        {
          "indexed": false,
          "internalType": "uint256",
          "name": "newPlayerHP",
          "type": "uint256"
        }
      ],
      "name": "HealthBoosted",
      "type": "event"
    },
    {
      "anonymous": false,
      "inputs": [
        {
          "indexed": false,
          "internalType": "uint256",
          "name": "newPlayerHP",
          "type": "uint256"
        }
      ],
      "name": "PlayerRevived",
      "type": "event"
    },
    {
      "anonymous": false,
      "inputs": [
        {
          "indexed": true,
          "internalType": "address",
          "name": "from",
          "type": "address"
        },
        {
          "indexed": true,
          "internalType": "address",
          "name": "to",
          "type": "address"
        },
        {
          "indexed": true,
          "internalType": "uint256",
          "name": "tokenId",
          "type": "uint256"
        }
      ],
      "name": "Transfer",
      "type": "event"
    },
    {
      "inputs": [
        {
          "internalType": "address",
          "name": "to",
          "type": "address"
        },
        {
          "internalType": "uint256",
          "name": "tokenId",
          "type": "uint256"
        }
      ],
      "name": "approve",
      "outputs": [],
      "stateMutability": "nonpayable",
      "type": "function"
    },
    {
      "inputs": [],
      "name": "attackBoss",
      "outputs": [],
      "stateMutability": "nonpayable",
      "type": "function"
    },
    {
      "inputs": [
        {
          "internalType": "address",
          "name": "owner",
          "type": "address"
        }
      ],
      "name": "balanceOf",
      "outputs": [
        {
          "internalType": "uint256",
          "name": "",
          "type": "uint256"
        }
      ],
      "stateMutability": "view",
      "type": "function"
    },
    {
      "inputs": [],
      "name": "bigBoss",
      "outputs": [
        {
          "internalType": "string",
          "name": "name",
          "type": "string"
        },
        {
          "internalType": "string",
          "name": "imageURI",
          "type": "string"
        },
        {
          "internalType": "uint256",
          "name": "hp",
          "type": "uint256"
        },
        {
          "internalType": "uint256",
          "name": "maxHp",
          "type": "uint256"
        },
        {
          "internalType": "uint256",
          "name": "attackDamage",
          "type": "uint256"
        },
        {
          "internalType": "uint256",
          "name": "criticalRate",
          "type": "uint256"
        }
      ],
      "stateMutability": "view",
      "type": "function"
    },
    {
      "inputs": [],
      "name": "checkIfUserHasNFT",
      "outputs": [
        {
          "components": [
            {
              "internalType": "uint256",
              "name": "characterIndex",
              "type": "uint256"
            },
            {
              "internalType": "string",
              "name": "name",
              "type": "string"
            },
            {
              "internalType": "string",
              "name": "imageURI",
              "type": "string"
            },
            {
              "internalType": "uint256",
              "name": "hp",
              "type": "uint256"
            },
            {
              "internalType": "uint256",
              "name": "maxHp",
              "type": "uint256"
            },
            {
              "internalType": "uint256",
              "name": "attackDamage",
              "type": "uint256"
            },
            {
              "internalType": "uint256",
              "name": "criticalRate",
              "type": "uint256"
            }
          ],
          "internalType": "struct MyEpicGame.CharacterAttributes",
          "name": "",
          "type": "tuple"
        }
      ],
      "stateMutability": "view",
      "type": "function"
    },
    {
      "inputs": [],
      "name": "getAllDefaultCharacters",
      "outputs": [
        {
          "components": [
            {
              "internalType": "uint256",
              "name": "characterIndex",
              "type": "uint256"
            },
            {
              "internalType": "string",
              "name": "name",
              "type": "string"
            },
            {
              "internalType": "string",
              "name": "imageURI",
              "type": "string"
            },
            {
              "internalType": "uint256",
              "name": "hp",
              "type": "uint256"
            },
            {
              "internalType": "uint256",
              "name": "maxHp",
              "type": "uint256"
            },
            {
              "internalType": "uint256",
              "name": "attackDamage",
              "type": "uint256"
            },
            {
              "internalType": "uint256",
              "name": "criticalRate",
              "type": "uint256"
            }
          ],
          "internalType": "struct MyEpicGame.CharacterAttributes[]",
          "name": "",
          "type": "tuple[]"
        }
      ],
      "stateMutability": "view",
      "type": "function"
    },
    {
      "inputs": [
        {
          "internalType": "uint256",
          "name": "tokenId",
          "type": "uint256"
        }
      ],
      "name": "getApproved",
      "outputs": [
        {
          "internalType": "address",
          "name": "",
          "type": "address"
        }
      ],
      "stateMutability": "view",
      "type": "function"
    },
    {
      "inputs": [],
      "name": "getBigBoss",
      "outputs": [
        {
          "components": [
            {
              "internalType": "string",
              "name": "name",
              "type": "string"
            },
            {
              "internalType": "string",
              "name": "imageURI",
              "type": "string"
            },
            {
              "internalType": "uint256",
              "name": "hp",
              "type": "uint256"
            },
            {
              "internalType": "uint256",
              "name": "maxHp",
              "type": "uint256"
            },
            {
              "internalType": "uint256",
              "name": "attackDamage",
              "type": "uint256"
            },
            {
              "internalType": "uint256",
              "name": "criticalRate",
              "type": "uint256"
            }
          ],
          "internalType": "struct MyEpicGame.BigBoss",
          "name": "",
          "type": "tuple"
        }
      ],
      "stateMutability": "view",
      "type": "function"
    },
    {
      "inputs": [
        {
          "internalType": "address",
          "name": "owner",
          "type": "address"
        },
        {
          "internalType": "address",
          "name": "operator",
          "type": "address"
        }
      ],
      "name": "isApprovedForAll",
      "outputs": [
        {
          "internalType": "bool",
          "name": "",
          "type": "bool"
        }
      ],
      "stateMutability": "view",
      "type": "function"
    },
    {
      "inputs": [
        {
          "internalType": "uint256",
          "name": "_characterIndex",
          "type": "uint256"
        }
      ],
      "name": "mintCharacterNFT",
      "outputs": [],
      "stateMutability": "nonpayable",
      "type": "function"
    },
    {
      "inputs": [],
      "name": "name",
      "outputs": [
        {
          "internalType": "string",
          "name": "",
          "type": "string"
        }
      ],
      "stateMutability": "view",
      "type": "function"
    },
    {
      "inputs": [
        {
          "internalType": "uint256",
          "name": "",
          "type": "uint256"
        }
      ],
      "name": "nftHolderAttributes",
      "outputs": [
        {
          "internalType": "uint256",
          "name": "characterIndex",
          "type": "uint256"
        },
        {
          "internalType": "string",
          "name": "name",
          "type": "string"
        },
        {
          "internalType": "string",
          "name": "imageURI",
          "type": "string"
        },
        {
          "internalType": "uint256",
          "name": "hp",
          "type": "uint256"
        },
        {
          "internalType": "uint256",
          "name": "maxHp",
          "type": "uint256"
        },
        {
          "internalType": "uint256",
          "name": "attackDamage",
          "type": "uint256"
        },
        {
          "internalType": "uint256",
          "name": "criticalRate",
          "type": "uint256"
        }
      ],
      "stateMutability": "view",
      "type": "function"
    },
    {
      "inputs": [
        {
          "internalType": "address",
          "name": "",
          "type": "address"
        }
      ],
      "name": "nftHolders",
      "outputs": [
        {
          "internalType": "uint256",
          "name": "",
          "type": "uint256"
        }
      ],
      "stateMutability": "view",
      "type": "function"
    },
    {
      "inputs": [
        {
          "internalType": "uint256",
          "name": "tokenId",
          "type": "uint256"
        }
      ],
      "name": "ownerOf",
      "outputs": [
        {
          "internalType": "address",
          "name": "",
          "type": "address"
        }
      ],
      "stateMutability": "view",
      "type": "function"
    },
    {
      "inputs": [
        {
          "internalType": "uint256",
          "name": "amount",
          "type": "uint256"
        }
      ],
      "name": "purchaseHealth",
      "outputs": [],
      "stateMutability": "payable",
      "type": "function"
    },
    {
      "inputs": [],
      "name": "revivePlayerNFT",
      "outputs": [],
      "stateMutability": "payable",
      "type": "function"
    },
    {
      "inputs": [
        {
          "internalType": "address",
          "name": "from",
          "type": "address"
        },
        {
          "internalType": "address",
          "name": "to",
          "type": "address"
        },
        {
          "internalType": "uint256",
          "name": "tokenId",
          "type": "uint256"
        }
      ],
      "name": "safeTransferFrom",
      "outputs": [],
      "stateMutability": "nonpayable",
      "type": "function"
    },
    {
      "inputs": [
        {
          "internalType": "address",
          "name": "from",
          "type": "address"
        },
        {
          "internalType": "address",
          "name": "to",
          "type": "address"
        },
        {
          "internalType": "uint256",
          "name": "tokenId",
          "type": "uint256"
        },
        {
          "internalType": "bytes",
          "name": "_data",
          "type": "bytes"
        }
      ],
      "name": "safeTransferFrom",
      "outputs": [],
      "stateMutability": "nonpayable",
      "type": "function"
    },
    {
      "inputs": [
        {
          "internalType": "address",
          "name": "operator",
          "type": "address"
        },
        {
          "internalType": "bool",
          "name": "approved",
          "type": "bool"
        }
      ],
      "name": "setApprovalForAll",
      "outputs": [],
      "stateMutability": "nonpayable",
      "type": "function"
    },
    {
      "inputs": [
        {
          "internalType": "bytes4",
          "name": "interfaceId",
          "type": "bytes4"
        }
      ],
      "name": "supportsInterface",
      "outputs": [
        {
          "internalType": "bool",
          "name": "",
          "type": "bool"
        }
      ],
      "stateMutability": "view",
      "type": "function"
    },
    {
      "inputs": [],
      "name": "symbol",
      "outputs": [
        {
          "internalType": "string",
          "name": "",
          "type": "string"
        }
      ],
      "stateMutability": "view",
      "type": "function"
    },
    {
      "inputs": [
        {
          "internalType": "uint256",
          "name": "_tokenId",
          "type": "uint256"
        }
      ],
      "name": "tokenURI",
      "outputs": [
        {
          "internalType": "string",
          "name": "",
          "type": "string"
        }
      ],
      "stateMutability": "view",
      "type": "function"
    },
    {
      "inputs": [
        {
          "internalType": "address",
          "name": "from",
          "type": "address"
        },
        {
          "internalType": "address",
          "name": "to",
          "type": "address"
        },
        {
          "internalType": "uint256",
          "name": "tokenId",
          "type": "uint256"
        }
      ],
      "name": "transferFrom",
      "outputs": [],
      "stateMutability": "nonpayable",
      "type": "function"
    }
  ],
  "bytecode": "0x608060405266038d7ea4c680006006553480156200001c57600080fd5b5060405162006add38038062006add833981810160405281019062000042919062000c9f565b6040518060400160405280600d81526020017f447261676f6e206f6620576172000000000000000000000000000000000000008152506040518060400160405280600681526020017f445241474f4e00000000000000000000000000000000000000000000000000008152508160009080519060200190620000c692919062000a07565b508060019080519060200190620000df92919062000a07565b5050506040518060c0016040528086815260200185815260200184815260200184815260200183815260200182815250600760008201518160000190805190602001906200012f92919062000a07565b5060208201518160010190805190602001906200014e92919062000a07565b5060408201518160020155606082015181600301556080820151816004015560a08201518160050155905050620002db6040518060600160405280602a815260200162006a83602a913960076000018054620001aa90620010fe565b80601f0160208091040260200160405190810160405280929190818152602001828054620001d890620010fe565b8015620002295780601f10620001fd5761010080835404028352916020019162000229565b820191906000526020600020905b8154815290600101906020018083116200020b57829003601f168201915b5050505050600760020154600760010180546200024690620010fe565b80601f01602080910402602001604051908101604052809291908181526020018280546200027490620010fe565b8015620002c55780601f106200029957610100808354040283529160200191620002c5565b820191906000526020600020905b815481529060010190602001808311620002a757829003601f168201915b5050505050620007ca60201b620025791760201c565b60005b8a51811015620007a257600e6040518060e001604052808381526020018d848151811062000335577f4e487b7100000000000000000000000000000000000000000000000000000000600052603260045260246000fd5b602002602001015181526020018c84815181106200037c577f4e487b7100000000000000000000000000000000000000000000000000000000600052603260045260246000fd5b602002602001015181526020018b8481518110620003c3577f4e487b7100000000000000000000000000000000000000000000000000000000600052603260045260246000fd5b602002602001015181526020018b84815181106200040a577f4e487b7100000000000000000000000000000000000000000000000000000000600052603260045260246000fd5b602002602001015181526020018a848151811062000451577f4e487b7100000000000000000000000000000000000000000000000000000000600052603260045260246000fd5b6020026020010151815260200189848151811062000498577f4e487b7100000000000000000000000000000000000000000000000000000000600052603260045260246000fd5b60200260200101518152509080600181540180825580915050600190039060005260206000209060070201600090919091909150600082015181600001556020820151816001019080519060200190620004f492919062000a07565b5060408201518160020190805190602001906200051392919062000a07565b50606082015181600301556080820151816004015560a0820151816005015560c0820151816006015550506000600e82815481106200057b577f4e487b7100000000000000000000000000000000000000000000000000000000600052603260045260246000fd5b90600052602060002090600702016040518060e001604052908160008201548152602001600182018054620005b090620010fe565b80601f0160208091040260200160405190810160405280929190818152602001828054620005de90620010fe565b80156200062f5780601f1062000603576101008083540402835291602001916200062f565b820191906000526020600020905b8154815290600101906020018083116200061157829003601f168201915b505050505081526020016002820180546200064a90620010fe565b80601f01602080910402602001604051908101604052809291908181526020018280546200067890620010fe565b8015620006c95780601f106200069d57610100808354040283529160200191620006c9565b820191906000526020600020905b815481529060010190602001808311620006ab57829003601f168201915b5050505050815260200160038201548152602001600482015481526020016005820154815260200160068201548152505090506200073a60405180606001604052806030815260200162006aad60309139826020015183606001518460a001516200087660201b6200261b1760201c565b6200078a6040518060400160405280600681526020017f696d67202573000000000000000000000000000000000000000000000000000081525082604001516200092260201b620026bd1760201c565b506001816200079a919062001061565b9050620002de565b50620007ba600d620009c860201b620027591760201c565b5050505050505050505062001222565b6200087084848484604051602401620007e7949392919062000ecb565b6040516020818303038152906040527f8d142cdd000000000000000000000000000000000000000000000000000000007bffffffffffffffffffffffffffffffffffffffffffffffffffffffff19166020820180517bffffffffffffffffffffffffffffffffffffffffffffffffffffffff8381831617835250505050620009de60201b60201c565b50505050565b6200091c8484848460405160240162000893949392919062000f2d565b6040516020818303038152906040527fd5cf17d0000000000000000000000000000000000000000000000000000000007bffffffffffffffffffffffffffffffffffffffffffffffffffffffff19166020820180517bffffffffffffffffffffffffffffffffffffffffffffffffffffffff8381831617835250505050620009de60201b60201c565b50505050565b620009c482826040516024016200093b92919062000e90565b6040516020818303038152906040527f4b5c4277000000000000000000000000000000000000000000000000000000007bffffffffffffffffffffffffffffffffffffffffffffffffffffffff19166020820180517bffffffffffffffffffffffffffffffffffffffffffffffffffffffff8381831617835250505050620009de60201b60201c565b5050565b6001816000016000828254019250508190555050565b60008151905060006a636f6e736f6c652e6c6f679050602083016000808483855afa5050505050565b82805462000a1590620010fe565b90600052602060002090601f01602090048101928262000a39576000855562000a85565b82601f1062000a5457805160ff191683800117855562000a85565b8280016001018555821562000a85579182015b8281111562000a8457825182559160200191906001019062000a67565b5b50905062000a94919062000a98565b5090565b5b8082111562000ab357600081600090555060010162000a99565b5090565b600062000ace62000ac88462000fb1565b62000f88565b9050808382526020820190508285602086028201111562000aee57600080fd5b60005b8581101562000b3d57815167ffffffffffffffff81111562000b1257600080fd5b80860162000b21898262000c5b565b8552602085019450602084019350505060018101905062000af1565b5050509392505050565b600062000b5e62000b588462000fe0565b62000f88565b9050808382526020820190508285602086028201111562000b7e57600080fd5b60005b8581101562000bb2578162000b97888262000c88565b84526020840193506020830192505060018101905062000b81565b5050509392505050565b600062000bd362000bcd846200100f565b62000f88565b90508281526020810184848401111562000bec57600080fd5b62000bf9848285620010c8565b509392505050565b600082601f83011262000c1357600080fd5b815162000c2584826020860162000ab7565b91505092915050565b600082601f83011262000c4057600080fd5b815162000c5284826020860162000b47565b91505092915050565b600082601f83011262000c6d57600080fd5b815162000c7f84826020860162000bbc565b91505092915050565b60008151905062000c998162001208565b92915050565b6000806000806000806000806000806101408b8d03121562000cc057600080fd5b60008b015167ffffffffffffffff81111562000cdb57600080fd5b62000ce98d828e0162000c01565b9a505060208b015167ffffffffffffffff81111562000d0757600080fd5b62000d158d828e0162000c01565b99505060408b015167ffffffffffffffff81111562000d3357600080fd5b62000d418d828e0162000c2e565b98505060608b015167ffffffffffffffff81111562000d5f57600080fd5b62000d6d8d828e0162000c2e565b97505060808b015167ffffffffffffffff81111562000d8b57600080fd5b62000d998d828e0162000c2e565b96505060a08b015167ffffffffffffffff81111562000db757600080fd5b62000dc58d828e0162000c5b565b95505060c08b015167ffffffffffffffff81111562000de357600080fd5b62000df18d828e0162000c5b565b94505060e062000e048d828e0162000c88565b93505061010062000e188d828e0162000c88565b92505061012062000e2c8d828e0162000c88565b9150509295989b9194979a5092959850565b600062000e4b8262001045565b62000e57818562001050565b935062000e69818560208601620010c8565b62000e7481620011f7565b840191505092915050565b62000e8a81620010be565b82525050565b6000604082019050818103600083015262000eac818562000e3e565b9050818103602083015262000ec2818462000e3e565b90509392505050565b6000608082019050818103600083015262000ee7818762000e3e565b9050818103602083015262000efd818662000e3e565b905062000f0e604083018562000e7f565b818103606083015262000f22818462000e3e565b905095945050505050565b6000608082019050818103600083015262000f49818762000e3e565b9050818103602083015262000f5f818662000e3e565b905062000f70604083018562000e7f565b62000f7f606083018462000e7f565b95945050505050565b600062000f9462000fa7565b905062000fa2828262001134565b919050565b6000604051905090565b600067ffffffffffffffff82111562000fcf5762000fce620011c8565b5b602082029050602081019050919050565b600067ffffffffffffffff82111562000ffe5762000ffd620011c8565b5b602082029050602081019050919050565b600067ffffffffffffffff8211156200102d576200102c620011c8565b5b6200103882620011f7565b9050602081019050919050565b600081519050919050565b600082825260208201905092915050565b60006200106e82620010be565b91506200107b83620010be565b9250827fffffffffffffffffffffffffffffffffffffffffffffffffffffffffffffffff03821115620010b357620010b26200116a565b5b828201905092915050565b6000819050919050565b60005b83811015620010e8578082015181840152602081019050620010cb565b83811115620010f8576000848401525b50505050565b600060028204905060018216806200111757607f821691505b602082108114156200112e576200112d62001199565b5b50919050565b6200113f82620011f7565b810181811067ffffffffffffffff82111715620011615762001160620011c8565b5b80604052505050565b7f4e487b7100000000000000000000000000000000000000000000000000000000600052601160045260246000fd5b7f4e487b7100000000000000000000000000000000000000000000000000000000600052602260045260246000fd5b7f4e487b7100000000000000000000000000000000000000000000000000000000600052604160045260246000fd5b6000601f19601f8301169050919050565b6200121381620010be565b81146200121f57600080fd5b50565b61585180620012326000396000f3fe6080604052600436106101405760003560e01c806395d89b41116100b6578063b953084e1161006f578063b953084e1461045d578063c87b56dd14610488578063c8cf27f4146104c5578063d4f24c5b146104f0578063e985e9c514610507578063f8b81ef71461054457610140565b806395d89b411461035157806398da4c951461037c578063a22cb465146103bf578063a9c32679146103e8578063b1b60de714610418578063b88d4fde1461043457610140565b806323b872dd1161010857806323b872dd1461023e57806342842e0e146102675780635bc75e05146102905780636352211e1461029a57806370a08231146102d75780637df124a11461031457610140565b806301ffc9a7146101455780630665f9611461018257806306fdde03146101ad578063081812fc146101d8578063095ea7b314610215575b600080fd5b34801561015157600080fd5b5061016c60048036038101906101679190613a6a565b61056d565b60405161017991906144a0565b60405180910390f35b34801561018e57600080fd5b5061019761064f565b6040516101a4919061495e565b60405180910390f35b3480156101b957600080fd5b506101c26107b5565b6040516101cf91906144bb565b60405180910390f35b3480156101e457600080fd5b506101ff60048036038101906101fa9190613abc565b610847565b60405161020c91906143e0565b60405180910390f35b34801561022157600080fd5b5061023c60048036038101906102379190613a2e565b6108cc565b005b34801561024a57600080fd5b5061026560048036038101906102609190613928565b6109e4565b005b34801561027357600080fd5b5061028e60048036038101906102899190613928565b610a44565b005b610298610a64565b005b3480156102a657600080fd5b506102c160048036038101906102bc9190613abc565b610bda565b6040516102ce91906143e0565b60405180910390f35b3480156102e357600080fd5b506102fe60048036038101906102f991906138c3565b610c8c565b60405161030b91906149a2565b60405180910390f35b34801561032057600080fd5b5061033b600480360381019061033691906138c3565b610d44565b60405161034891906149a2565b60405180910390f35b34801561035d57600080fd5b50610366610d5c565b60405161037391906144bb565b60405180910390f35b34801561038857600080fd5b506103a3600480360381019061039e9190613abc565b610dee565b6040516103b697969594939291906149bd565b60405180910390f35b3480156103cb57600080fd5b506103e660048036038101906103e191906139f2565b610f40565b005b3480156103f457600080fd5b506103fd6110c1565b60405161040f969594939291906145c1565b60405180910390f35b610432600480360381019061042d9190613abc565b6111fb565b005b34801561044057600080fd5b5061045b60048036038101906104569190613977565b611600565b005b34801561046957600080fd5b50610472611662565b60405161047f919061447e565b60405180910390f35b34801561049457600080fd5b506104af60048036038101906104aa9190613abc565b611817565b6040516104bc91906144bb565b60405180910390f35b3480156104d157600080fd5b506104da611a3c565b6040516104e79190614980565b60405180910390f35b3480156104fc57600080fd5b50610505611c1e565b005b34801561051357600080fd5b5061052e600480360381019061052991906138ec565b612096565b60405161053b91906144a0565b60405180910390f35b34801561055057600080fd5b5061056b60048036038101906105669190613abc565b61212a565b005b60007f80ac58cd000000000000000000000000000000000000000000000000000000007bffffffffffffffffffffffffffffffffffffffffffffffffffffffff1916827bffffffffffffffffffffffffffffffffffffffffffffffffffffffff1916148061063857507f5b5e139f000000000000000000000000000000000000000000000000000000007bffffffffffffffffffffffffffffffffffffffffffffffffffffffff1916827bffffffffffffffffffffffffffffffffffffffffffffffffffffffff1916145b8061064857506106478261276f565b5b9050919050565b6106576136dc565b60076040518060c001604052908160008201805461067490614d1c565b80601f01602080910402602001604051908101604052809291908181526020018280546106a090614d1c565b80156106ed5780601f106106c2576101008083540402835291602001916106ed565b820191906000526020600020905b8154815290600101906020018083116106d057829003601f168201915b5050505050815260200160018201805461070690614d1c565b80601f016020809104026020016040519081016040528092919081815260200182805461073290614d1c565b801561077f5780601f106107545761010080835404028352916020019161077f565b820191906000526020600020905b81548152906001019060200180831161076257829003601f168201915b50505050508152602001600282015481526020016003820154815260200160048201548152602001600582015481525050905090565b6060600080546107c490614d1c565b80601f01602080910402602001604051908101604052809291908181526020018280546107f090614d1c565b801561083d5780601f106108125761010080835404028352916020019161083d565b820191906000526020600020905b81548152906001019060200180831161082057829003601f168201915b5050505050905090565b6000610852826127d9565b610891576040517f08c379a00000000000000000000000000000000000000000000000000000000081526004016108889061485e565b60405180910390fd5b6004600083815260200190815260200160002060009054906101000a900473ffffffffffffffffffffffffffffffffffffffff169050919050565b60006108d782610bda565b90508073ffffffffffffffffffffffffffffffffffffffff168373ffffffffffffffffffffffffffffffffffffffff161415610948576040517f08c379a000000000000000000000000000000000000000000000000000000000815260040161093f9061489e565b60405180910390fd5b8073ffffffffffffffffffffffffffffffffffffffff16610967612845565b73ffffffffffffffffffffffffffffffffffffffff161480610996575061099581610990612845565b612096565b5b6109d5576040517f08c379a00000000000000000000000000000000000000000000000000000000081526004016109cc9061479e565b60405180910390fd5b6109df838361284d565b505050565b6109f56109ef612845565b82612906565b610a34576040517f08c379a0000000000000000000000000000000000000000000000000000000008152600401610a2b906148de565b60405180910390fd5b610a3f8383836129e4565b505050565b610a5f83838360405180602001604052806000815250611600565b505050565b6000601060003373ffffffffffffffffffffffffffffffffffffffff1673ffffffffffffffffffffffffffffffffffffffff1681526020019081526020016000205490506000600f600083815260200190815260200160002090506000816003015414610b06576040517f08c379a0000000000000000000000000000000000000000000000000000000008152600401610afd906147be565b60405180910390fd5b6611c37937e080003414610b4f576040517f08c379a0000000000000000000000000000000000000000000000000000000008152600401610b469061469e565b60405180910390fd5b80600401548160030181905550610b9b6040518060400160405280601981526020017f6e6674506c61796572546f6b656e20257320726576697665640000000000000081525083612c40565b7f2ef9deb97512c1c0a10cd6a8ec8a28581958abf30841ec9a783081a39f49ba098160030154604051610bce91906149a2565b60405180910390a15050565b6000806002600084815260200190815260200160002060009054906101000a900473ffffffffffffffffffffffffffffffffffffffff169050600073ffffffffffffffffffffffffffffffffffffffff168173ffffffffffffffffffffffffffffffffffffffff161415610c83576040517f08c379a0000000000000000000000000000000000000000000000000000000008152600401610c7a906147fe565b60405180910390fd5b80915050919050565b60008073ffffffffffffffffffffffffffffffffffffffff168273ffffffffffffffffffffffffffffffffffffffff161415610cfd576040517f08c379a0000000000000000000000000000000000000000000000000000000008152600401610cf4906147de565b60405180910390fd5b600360008373ffffffffffffffffffffffffffffffffffffffff1673ffffffffffffffffffffffffffffffffffffffff168152602001908152602001600020549050919050565b60106020528060005260406000206000915090505481565b606060018054610d6b90614d1c565b80601f0160208091040260200160405190810160405280929190818152602001828054610d9790614d1c565b8015610de45780601f10610db957610100808354040283529160200191610de4565b820191906000526020600020905b815481529060010190602001808311610dc757829003601f168201915b5050505050905090565b600f602052806000526040600020600091509050806000015490806001018054610e1790614d1c565b80601f0160208091040260200160405190810160405280929190818152602001828054610e4390614d1c565b8015610e905780601f10610e6557610100808354040283529160200191610e90565b820191906000526020600020905b815481529060010190602001808311610e7357829003601f168201915b505050505090806002018054610ea590614d1c565b80601f0160208091040260200160405190810160405280929190818152602001828054610ed190614d1c565b8015610f1e5780601f10610ef357610100808354040283529160200191610f1e565b820191906000526020600020905b815481529060010190602001808311610f0157829003601f168201915b5050505050908060030154908060040154908060050154908060060154905087565b610f48612845565b73ffffffffffffffffffffffffffffffffffffffff168273ffffffffffffffffffffffffffffffffffffffff161415610fb6576040517f08c379a0000000000000000000000000000000000000000000000000000000008152600401610fad9061475e565b60405180910390fd5b8060056000610fc3612845565b73ffffffffffffffffffffffffffffffffffffffff1673ffffffffffffffffffffffffffffffffffffffff16815260200190815260200160002060008473ffffffffffffffffffffffffffffffffffffffff1673ffffffffffffffffffffffffffffffffffffffff16815260200190815260200160002060006101000a81548160ff0219169083151502179055508173ffffffffffffffffffffffffffffffffffffffff16611070612845565b73ffffffffffffffffffffffffffffffffffffffff167f17307eab39ab6107e8899845ad3d59bd9653f200f220920489ca2b5937696c31836040516110b591906144a0565b60405180910390a35050565b60078060000180546110d290614d1c565b80601f01602080910402602001604051908101604052809291908181526020018280546110fe90614d1c565b801561114b5780601f106111205761010080835404028352916020019161114b565b820191906000526020600020905b81548152906001019060200180831161112e57829003601f168201915b50505050509080600101805461116090614d1c565b80601f016020809104026020016040519081016040528092919081815260200182805461118c90614d1c565b80156111d95780601f106111ae576101008083540402835291602001916111d9565b820191906000526020600020905b8154815290600101906020018083116111bc57829003601f168201915b5050505050908060020154908060030154908060040154908060050154905086565b6000601060003373ffffffffffffffffffffffffffffffffffffffff1673ffffffffffffffffffffffffffffffffffffffff1681526020019081526020016000205490506000600f6000838152602001908152602001600020905080600401548160030154106112a0576040517f08c379a0000000000000000000000000000000000000000000000000000000008152600401611297906148fe565b60405180910390fd5b60008160030154846112b29190614b51565b905060008260030154116112fb576040517f08c379a00000000000000000000000000000000000000000000000000000000081526004016112f2906146be565b60405180910390fd5b8160040154811115611502576000846006546113179190614bd8565b90506113586040518060400160405280602081526020017f257320726571756972656420666f722074686973207472616e73616374696f6e81525082612c40565b8034101561139b576040517f08c379a00000000000000000000000000000000000000000000000000000000081526004016113929061491e565b60405180910390fd5b60008360040154836113ad9190614c32565b90506113d16040518060600160405280602881526020016157f46028913982612c40565b6000600654826113e19190614bd8565b90506114056040518060600160405280602181526020016157016021913982612c40565b846004015485600301819055507f0585e94633e67ae51a51870733f76930a63d226e5dd8022290a3e072bae7ee61856003015460405161144591906149a2565b60405180910390a160003373ffffffffffffffffffffffffffffffffffffffff16826040516114739061438e565b60006040518083038185875af1925050503d80600081146114b0576040519150601f19603f3d011682016040523d82523d6000602084013e6114b5565b606091505b50509050806114f9576040517f08c379a00000000000000000000000000000000000000000000000000000000081526004016114f0906148be565b60405180910390fd5b505050506115fa565b816004015481116115f95760008460065461151d9190614bd8565b905061155e6040518060400160405280602081526020017f257320726571756972656420666f722074686973207472616e73616374696f6e81525082612c40565b803410156115a1576040517f08c379a00000000000000000000000000000000000000000000000000000000081526004016115989061491e565b60405180910390fd5b848360030160008282546115b59190614b51565b925050819055507f0585e94633e67ae51a51870733f76930a63d226e5dd8022290a3e072bae7ee6183600301546040516115ef91906149a2565b60405180910390a1505b5b50505050565b61161161160b612845565b83612906565b611650576040517f08c379a0000000000000000000000000000000000000000000000000000000008152600401611647906148de565b60405180910390fd5b61165c84848484612cdc565b50505050565b6060600e805480602002602001604051908101604052809291908181526020016000905b8282101561180e57838290600052602060002090600702016040518060e0016040529081600082015481526020016001820180546116c390614d1c565b80601f01602080910402602001604051908101604052809291908181526020018280546116ef90614d1c565b801561173c5780601f106117115761010080835404028352916020019161173c565b820191906000526020600020905b81548152906001019060200180831161171f57829003601f168201915b5050505050815260200160028201805461175590614d1c565b80601f016020809104026020016040519081016040528092919081815260200182805461178190614d1c565b80156117ce5780601f106117a3576101008083540402835291602001916117ce565b820191906000526020600020905b8154815290600101906020018083116117b157829003601f168201915b5050505050815260200160038201548152602001600482015481526020016005820154815260200160068201548152505081526020019060010190611686565b50505050905090565b60606000600f60008481526020019081526020016000206040518060e00160405290816000820154815260200160018201805461185390614d1c565b80601f016020809104026020016040519081016040528092919081815260200182805461187f90614d1c565b80156118cc5780601f106118a1576101008083540402835291602001916118cc565b820191906000526020600020905b8154815290600101906020018083116118af57829003601f168201915b505050505081526020016002820180546118e590614d1c565b80601f016020809104026020016040519081016040528092919081815260200182805461191190614d1c565b801561195e5780601f106119335761010080835404028352916020019161195e565b820191906000526020600020905b81548152906001019060200180831161194157829003601f168201915b50505050508152602001600382015481526020016004820154815260200160058201548152602001600682015481525050905060006119a08260600151612d38565b905060006119b18360800151612d38565b905060006119c28460a00151612d38565b90506000611a0885602001516119d789612d38565b87604001518787876040516020016119f4969594939291906142c7565b604051602081830303815290604052612ee5565b9050600081604051602001611a1d919061436c565b6040516020818303038152906040529050809650505050505050919050565b611a44613712565b6000601060003373ffffffffffffffffffffffffffffffffffffffff1673ffffffffffffffffffffffffffffffffffffffff1681526020019081526020016000205490506000811115611c0d57600f60008281526020019081526020016000206040518060e001604052908160008201548152602001600182018054611ac990614d1c565b80601f0160208091040260200160405190810160405280929190818152602001828054611af590614d1c565b8015611b425780601f10611b1757610100808354040283529160200191611b42565b820191906000526020600020905b815481529060010190602001808311611b2557829003601f168201915b50505050508152602001600282018054611b5b90614d1c565b80601f0160208091040260200160405190810160405280929190818152602001828054611b8790614d1c565b8015611bd45780601f10611ba957610100808354040283529160200191611bd4565b820191906000526020600020905b815481529060010190602001808311611bb757829003601f168201915b50505050508152602001600382015481526020016004820154815260200160058201548152602001600682015481525050915050611c1b565b611c15613712565b80925050505b90565b6000601060003373ffffffffffffffffffffffffffffffffffffffff1673ffffffffffffffffffffffffffffffffffffffff1681526020019081526020016000205490506000600f60008381526020019081526020016000209050611d316040518060600160405280603c81526020016157b8603c9139826001018054611ca490614d1c565b80601f0160208091040260200160405190810160405280929190818152602001828054611cd090614d1c565b8015611d1d5780601f10611cf257610100808354040283529160200191611d1d565b820191906000526020600020905b815481529060010190602001808311611d0057829003601f168201915b50505050508360030154846005015461261b565b611e096040518060400160405280601b81526020017f426f73732025732068617320257320485020616e64202573204144000000000081525060076000018054611d7a90614d1c565b80601f0160208091040260200160405190810160405280929190818152602001828054611da690614d1c565b8015611df35780601f10611dc857610100808354040283529160200191611df3565b820191906000526020600020905b815481529060010190602001808311611dd657829003601f168201915b505050505060076002015460076004015461261b565b60008160050154905060ff82600601541115611e5a576040517f08c379a0000000000000000000000000000000000000000000000000000000008152600401611e519061493e565b60405180910390fd5b60011515611e6b83600601546130a3565b15151415611eba57600281611e809190614bd8565b90507f61c21ae15343faa9851401c4f9fa45781dbca304d9d1562bf53db57752e2f88e81604051611eb191906149a2565b60405180910390a15b6000826003015411611f01576040517f08c379a0000000000000000000000000000000000000000000000000000000008152600401611ef89061481e565b60405180910390fd5b600060076002015411611f49576040517f08c379a0000000000000000000000000000000000000000000000000000000008152600401611f40906146fe565b60405180910390fd5b81600501546007600201541015611f6a576000600760020181905550611f89565b8160050154600760020154611f7f9190614c32565b6007600201819055505b6000600760040154905060011515611fa56007600501546130a3565b15151415611ff457600281611fba9190614bd8565b90507f61c21ae15343faa9851401c4f9fa45781dbca304d9d1562bf53db57752e2f88e81604051611feb91906149a2565b60405180910390a15b808360030154101561200f5760008360030181905550612028565b80836003015461201f9190614c32565b83600301819055505b61204e604051806060016040528060288152602001615762602891398460030154612c40565b7f838ab28464562786a6c4ab2311964b82fa60bd9b14aa7e856af1f3f18d41a4146007600201548460030154604051612088929190614a3a565b60405180910390a150505050565b6000600560008473ffffffffffffffffffffffffffffffffffffffff1673ffffffffffffffffffffffffffffffffffffffff16815260200190815260200160002060008373ffffffffffffffffffffffffffffffffffffffff1673ffffffffffffffffffffffffffffffffffffffff16815260200190815260200160002060009054906101000a900460ff16905092915050565b6000612136600d613177565b90506121423382613185565b6040518060e00160405280838152602001600e848154811061218d577f4e487b7100000000000000000000000000000000000000000000000000000000600052603260045260246000fd5b906000526020600020906007020160010180546121a990614d1c565b80601f01602080910402602001604051908101604052809291908181526020018280546121d590614d1c565b80156122225780601f106121f757610100808354040283529160200191612222565b820191906000526020600020905b81548152906001019060200180831161220557829003601f168201915b50505050508152602001600e8481548110612266577f4e487b7100000000000000000000000000000000000000000000000000000000600052603260045260246000fd5b9060005260206000209060070201600201805461228290614d1c565b80601f01602080910402602001604051908101604052809291908181526020018280546122ae90614d1c565b80156122fb5780601f106122d0576101008083540402835291602001916122fb565b820191906000526020600020905b8154815290600101906020018083116122de57829003601f168201915b50505050508152602001600e848154811061233f577f4e487b7100000000000000000000000000000000000000000000000000000000600052603260045260246000fd5b9060005260206000209060070201600301548152602001600e8481548110612390577f4e487b7100000000000000000000000000000000000000000000000000000000600052603260045260246000fd5b9060005260206000209060070201600301548152602001600e84815481106123e1577f4e487b7100000000000000000000000000000000000000000000000000000000600052603260045260246000fd5b9060005260206000209060070201600501548152602001600e8481548110612432577f4e487b7100000000000000000000000000000000000000000000000000000000600052603260045260246000fd5b906000526020600020906007020160060154815250600f600083815260200190815260200160002060008201518160000155602082015181600101908051906020019061248092919061374f565b50604082015181600201908051906020019061249d92919061374f565b50606082015181600301556080820151816004015560a0820151816005015560c082015181600601559050506124ec6040518060600160405280602e815260200161578a602e913982846131a3565b80601060003373ffffffffffffffffffffffffffffffffffffffff1673ffffffffffffffffffffffffffffffffffffffff1681526020019081526020016000208190555061253a600d612759565b7f4bc303fd457a97b4691b9af582ce71868a3d258638c8d4f8c60988a0f0bfb8cd33828460405161256d93929190614447565b60405180910390a15050565b612615848484846040516024016125939493929190614514565b6040516020818303038152906040527f8d142cdd000000000000000000000000000000000000000000000000000000007bffffffffffffffffffffffffffffffffffffffffffffffffffffffff19166020820180517bffffffffffffffffffffffffffffffffffffffffffffffffffffffff8381831617835250505050613242565b50505050565b6126b784848484604051602401612635949392919061456e565b6040516020818303038152906040527fd5cf17d0000000000000000000000000000000000000000000000000000000007bffffffffffffffffffffffffffffffffffffffffffffffffffffffff19166020820180517bffffffffffffffffffffffffffffffffffffffffffffffffffffffff8381831617835250505050613242565b50505050565b61275582826040516024016126d39291906144dd565b6040516020818303038152906040527f4b5c4277000000000000000000000000000000000000000000000000000000007bffffffffffffffffffffffffffffffffffffffffffffffffffffffff19166020820180517bffffffffffffffffffffffffffffffffffffffffffffffffffffffff8381831617835250505050613242565b5050565b6001816000016000828254019250508190555050565b60007f01ffc9a7000000000000000000000000000000000000000000000000000000007bffffffffffffffffffffffffffffffffffffffffffffffffffffffff1916827bffffffffffffffffffffffffffffffffffffffffffffffffffffffff1916149050919050565b60008073ffffffffffffffffffffffffffffffffffffffff166002600084815260200190815260200160002060009054906101000a900473ffffffffffffffffffffffffffffffffffffffff1673ffffffffffffffffffffffffffffffffffffffff1614159050919050565b600033905090565b816004600083815260200190815260200160002060006101000a81548173ffffffffffffffffffffffffffffffffffffffff021916908373ffffffffffffffffffffffffffffffffffffffff160217905550808273ffffffffffffffffffffffffffffffffffffffff166128c083610bda565b73ffffffffffffffffffffffffffffffffffffffff167f8c5be1e5ebec7d5bd14f71427d1e84f3dd0314c0f7b2291e5b200ac8c7c3b92560405160405180910390a45050565b6000612911826127d9565b612950576040517f08c379a00000000000000000000000000000000000000000000000000000000081526004016129479061477e565b60405180910390fd5b600061295b83610bda565b90508073ffffffffffffffffffffffffffffffffffffffff168473ffffffffffffffffffffffffffffffffffffffff1614806129ca57508373ffffffffffffffffffffffffffffffffffffffff166129b284610847565b73ffffffffffffffffffffffffffffffffffffffff16145b806129db57506129da8185612096565b5b91505092915050565b8273ffffffffffffffffffffffffffffffffffffffff16612a0482610bda565b73ffffffffffffffffffffffffffffffffffffffff1614612a5a576040517f08c379a0000000000000000000000000000000000000000000000000000000008152600401612a519061487e565b60405180910390fd5b600073ffffffffffffffffffffffffffffffffffffffff168273ffffffffffffffffffffffffffffffffffffffff161415612aca576040517f08c379a0000000000000000000000000000000000000000000000000000000008152600401612ac19061473e565b60405180910390fd5b612ad583838361326b565b612ae060008261284d565b6001600360008573ffffffffffffffffffffffffffffffffffffffff1673ffffffffffffffffffffffffffffffffffffffff1681526020019081526020016000206000828254612b309190614c32565b925050819055506001600360008473ffffffffffffffffffffffffffffffffffffffff1673ffffffffffffffffffffffffffffffffffffffff1681526020019081526020016000206000828254612b879190614b51565b92505081905550816002600083815260200190815260200160002060006101000a81548173ffffffffffffffffffffffffffffffffffffffff021916908373ffffffffffffffffffffffffffffffffffffffff160217905550808273ffffffffffffffffffffffffffffffffffffffff168473ffffffffffffffffffffffffffffffffffffffff167fddf252ad1be2c89b69c2b068fc378daa952ba7f163c4a11628f55a4df523b3ef60405160405180910390a4505050565b612cd88282604051602401612c56929190614630565b6040516020818303038152906040527f9710a9d0000000000000000000000000000000000000000000000000000000007bffffffffffffffffffffffffffffffffffffffffffffffffffffffff19166020820180517bffffffffffffffffffffffffffffffffffffffffffffffffffffffff8381831617835250505050613242565b5050565b612ce78484846129e4565b612cf384848484613270565b612d32576040517f08c379a0000000000000000000000000000000000000000000000000000000008152600401612d29906146de565b60405180910390fd5b50505050565b60606000821415612d80576040518060400160405280600181526020017f30000000000000000000000000000000000000000000000000000000000000008152509050612ee0565b600082905060005b60008214612db2578080612d9b90614d7f565b915050600a82612dab9190614ba7565b9150612d88565b60008167ffffffffffffffff811115612df4577f4e487b7100000000000000000000000000000000000000000000000000000000600052604160045260246000fd5b6040519080825280601f01601f191660200182016040528015612e265781602001600182028036833780820191505090505b5090505b60008514612ed957600182612e3f9190614c32565b9150600a85612e4e9190614df6565b6030612e5a9190614b51565b60f81b818381518110612e96577f4e487b7100000000000000000000000000000000000000000000000000000000600052603260045260246000fd5b60200101907effffffffffffffffffffffffffffffffffffffffffffffffffffffffffffff1916908160001a905350600a85612ed29190614ba7565b9450612e2a565b8093505050505b919050565b60606000825190506000811415612f0e576040518060200160405280600081525091505061309e565b60006003600283612f1f9190614b51565b612f299190614ba7565b6004612f359190614bd8565b90506000602082612f469190614b51565b67ffffffffffffffff811115612f85577f4e487b7100000000000000000000000000000000000000000000000000000000600052604160045260246000fd5b6040519080825280601f01601f191660200182016040528015612fb75781602001600182028036833780820191505090505b5090506000604051806060016040528060408152602001615722604091399050600181016020830160005b8681101561305b5760038101905062ffffff818a015116603f8160121c168401518060081b905060ff603f83600c1c1686015116810190508060081b905060ff603f8360061c1686015116810190508060081b905060ff603f831686015116810190508060e01b90508084526004840193505050612fe2565b506003860660018114613075576002811461308557613090565b613d3d60f01b6002830352613090565b603d60f81b60018303525b508484525050819450505050505b919050565b60008060ff4233446040516020016130bd939291906143a3565b6040516020818303038152906040528051906020012060001c6130e09190614df6565b90506131216040518060400160405280601981526020017f52616e646f6d206e756d62657220666f7220637269742025730000000000000081525082612c40565b600083821161316d576131686040518060400160405280601581526020017f437269746963616c206869742061636869657665640000000000000000000000815250613407565b600190505b8092505050919050565b600081600001549050919050565b61319f8282604051806020016040528060008152506134a0565b5050565b61323d8383836040516024016131bb93929190614660565b6040516020818303038152906040527f969cdd03000000000000000000000000000000000000000000000000000000007bffffffffffffffffffffffffffffffffffffffffffffffffffffffff19166020820180517bffffffffffffffffffffffffffffffffffffffffffffffffffffffff8381831617835250505050613242565b505050565b60008151905060006a636f6e736f6c652e6c6f679050602083016000808483855afa5050505050565b505050565b60006132918473ffffffffffffffffffffffffffffffffffffffff166134fb565b156133fa578373ffffffffffffffffffffffffffffffffffffffff1663150b7a026132ba612845565b8786866040518563ffffffff1660e01b81526004016132dc94939291906143fb565b602060405180830381600087803b1580156132f657600080fd5b505af192505050801561332757506040513d601f19601f820116820180604052508101906133249190613a93565b60015b6133aa573d8060008114613357576040519150601f19603f3d011682016040523d82523d6000602084013e61335c565b606091505b506000815114156133a2576040517f08c379a0000000000000000000000000000000000000000000000000000000008152600401613399906146de565b60405180910390fd5b805181602001fd5b63150b7a0260e01b7bffffffffffffffffffffffffffffffffffffffffffffffffffffffff1916817bffffffffffffffffffffffffffffffffffffffffffffffffffffffff1916149150506133ff565b600190505b949350505050565b61349d8160405160240161341b91906144bb565b6040516020818303038152906040527f41304fac000000000000000000000000000000000000000000000000000000007bffffffffffffffffffffffffffffffffffffffffffffffffffffffff19166020820180517bffffffffffffffffffffffffffffffffffffffffffffffffffffffff8381831617835250505050613242565b50565b6134aa838361350e565b6134b76000848484613270565b6134f6576040517f08c379a00000000000000000000000000000000000000000000000000000000081526004016134ed906146de565b60405180910390fd5b505050565b600080823b905060008111915050919050565b600073ffffffffffffffffffffffffffffffffffffffff168273ffffffffffffffffffffffffffffffffffffffff16141561357e576040517f08c379a00000000000000000000000000000000000000000000000000000000081526004016135759061483e565b60405180910390fd5b613587816127d9565b156135c7576040517f08c379a00000000000000000000000000000000000000000000000000000000081526004016135be9061471e565b60405180910390fd5b6135d36000838361326b565b6001600360008473ffffffffffffffffffffffffffffffffffffffff1673ffffffffffffffffffffffffffffffffffffffff16815260200190815260200160002060008282546136239190614b51565b92505081905550816002600083815260200190815260200160002060006101000a81548173ffffffffffffffffffffffffffffffffffffffff021916908373ffffffffffffffffffffffffffffffffffffffff160217905550808273ffffffffffffffffffffffffffffffffffffffff16600073ffffffffffffffffffffffffffffffffffffffff167fddf252ad1be2c89b69c2b068fc378daa952ba7f163c4a11628f55a4df523b3ef60405160405180910390a45050565b6040518060c001604052806060815260200160608152602001600081526020016000815260200160008152602001600081525090565b6040518060e00160405280600081526020016060815260200160608152602001600081526020016000815260200160008152602001600081525090565b82805461375b90614d1c565b90600052602060002090601f01602090048101928261377d57600085556137c4565b82601f1061379657805160ff19168380011785556137c4565b828001600101855582156137c4579182015b828111156137c35782518255916020019190600101906137a8565b5b5090506137d191906137d5565b5090565b5b808211156137ee5760008160009055506001016137d6565b5090565b600061380561380084614a88565b614a63565b90508281526020810184848401111561381d57600080fd5b613828848285614cda565b509392505050565b60008135905061383f816156a4565b92915050565b600081359050613854816156bb565b92915050565b600081359050613869816156d2565b92915050565b60008151905061387e816156d2565b92915050565b600082601f83011261389557600080fd5b81356138a58482602086016137f2565b91505092915050565b6000813590506138bd816156e9565b92915050565b6000602082840312156138d557600080fd5b60006138e384828501613830565b91505092915050565b600080604083850312156138ff57600080fd5b600061390d85828601613830565b925050602061391e85828601613830565b9150509250929050565b60008060006060848603121561393d57600080fd5b600061394b86828701613830565b935050602061395c86828701613830565b925050604061396d868287016138ae565b9150509250925092565b6000806000806080858703121561398d57600080fd5b600061399b87828801613830565b94505060206139ac87828801613830565b93505060406139bd878288016138ae565b925050606085013567ffffffffffffffff8111156139da57600080fd5b6139e687828801613884565b91505092959194509250565b60008060408385031215613a0557600080fd5b6000613a1385828601613830565b9250506020613a2485828601613845565b9150509250929050565b60008060408385031215613a4157600080fd5b6000613a4f85828601613830565b9250506020613a60858286016138ae565b9150509250929050565b600060208284031215613a7c57600080fd5b6000613a8a8482850161385a565b91505092915050565b600060208284031215613aa557600080fd5b6000613ab38482850161386f565b91505092915050565b600060208284031215613ace57600080fd5b6000613adc848285016138ae565b91505092915050565b6000613af1838361414c565b905092915050565b613b0281614c66565b82525050565b613b19613b1482614c66565b614dc8565b82525050565b6000613b2a82614ac9565b613b348185614af7565b935083602082028501613b4685614ab9565b8060005b85811015613b825784840389528151613b638582613ae5565b9450613b6e83614aea565b925060208a01995050600181019050613b4a565b50829750879550505050505092915050565b613b9d81614c78565b82525050565b6000613bae82614ad4565b613bb88185614b08565b9350613bc8818560208601614ce9565b613bd181614ee3565b840191505092915050565b6000613be782614adf565b613bf18185614b24565b9350613c01818560208601614ce9565b613c0a81614ee3565b840191505092915050565b6000613c2082614adf565b613c2a8185614b35565b9350613c3a818560208601614ce9565b613c4381614ee3565b840191505092915050565b6000613c5982614adf565b613c638185614b46565b9350613c73818560208601614ce9565b80840191505092915050565b6000613c8c601883614b35565b9150613c9782614f01565b602082019050919050565b6000613caf600b83614b46565b9150613cba82614f2a565b600b82019050919050565b6000613cd2603483614b35565b9150613cdd82614f53565b604082019050919050565b6000613cf5606283614b46565b9150613d0082614fa2565b606282019050919050565b6000613d18603283614b35565b9150613d238261503d565b604082019050919050565b6000613d3b602883614b35565b9150613d468261508c565b604082019050919050565b6000613d5e601c83614b35565b9150613d69826150db565b602082019050919050565b6000613d81600e83614b46565b9150613d8c82615104565b600e82019050919050565b6000613da4602483614b35565b9150613daf8261512d565b604082019050919050565b6000613dc7601983614b35565b9150613dd28261517c565b602082019050919050565b6000613dea602c83614b35565b9150613df5826151a5565b604082019050919050565b6000613e0d603883614b35565b9150613e18826151f4565b604082019050919050565b6000613e30601d83614b35565b9150613e3b82615243565b602082019050919050565b6000613e53602a83614b35565b9150613e5e8261526c565b604082019050919050565b6000613e76602983614b35565b9150613e81826152bb565b604082019050919050565b6000613e99602d83614b35565b9150613ea48261530a565b604082019050919050565b6000613ebc600483614b46565b9150613ec782615359565b600482019050919050565b6000613edf602083614b35565b9150613eea82615382565b602082019050919050565b6000613f02602c83614b35565b9150613f0d826153ab565b604082019050919050565b6000613f25602983614b35565b9150613f30826153fa565b604082019050919050565b6000613f48600a83614b46565b9150613f5382615449565b600a82019050919050565b6000613f6b602183614b35565b9150613f7682615472565b604082019050919050565b6000613f8e601d83614b46565b9150613f99826154c1565b601d82019050919050565b6000613fb1600083614b19565b9150613fbc826154ea565b600082019050919050565b6000613fd4601883614b35565b9150613fdf826154ed565b602082019050919050565b6000613ff7603183614b35565b915061400282615516565b604082019050919050565b600061401a603383614b35565b915061402582615565565b604082019050919050565b600061403d603d83614b46565b9150614048826155b4565b603d82019050919050565b6000614060602d83614b46565b915061406b82615603565b602d82019050919050565b6000614083601783614b35565b915061408e82615652565b602082019050919050565b60006140a6601783614b35565b91506140b18261567b565b602082019050919050565b600060c08301600083015184820360008601526140d98282613bdc565b915050602083015184820360208601526140f38282613bdc565b91505060408301516141086040860182614292565b50606083015161411b6060860182614292565b50608083015161412e6080860182614292565b5060a083015161414160a0860182614292565b508091505092915050565b600060e0830160008301516141646000860182614292565b506020830151848203602086015261417c8282613bdc565b915050604083015184820360408601526141968282613bdc565b91505060608301516141ab6060860182614292565b5060808301516141be6080860182614292565b5060a08301516141d160a0860182614292565b5060c08301516141e460c0860182614292565b508091505092915050565b600060e0830160008301516142076000860182614292565b506020830151848203602086015261421f8282613bdc565b915050604083015184820360408601526142398282613bdc565b915050606083015161424e6060860182614292565b5060808301516142616080860182614292565b5060a083015161427460a0860182614292565b5060c083015161428760c0860182614292565b508091505092915050565b61429b81614cd0565b82525050565b6142aa81614cd0565b82525050565b6142c16142bc82614cd0565b614dec565b82525050565b60006142d282613f3b565b91506142de8289613c4e565b91506142e982613ca2565b91506142f58288613c4e565b915061430082613ce8565b915061430c8287613c4e565b915061431782614030565b91506143238286613c4e565b915061432e82613d74565b915061433a8285613c4e565b915061434582614053565b91506143518284613c4e565b915061435c82613eaf565b9150819050979650505050505050565b600061437782613f81565b91506143838284613c4e565b915081905092915050565b600061439982613fa4565b9150819050919050565b60006143af82866142b0565b6020820191506143bf8285613b08565b6014820191506143cf82846142b0565b602082019150819050949350505050565b60006020820190506143f56000830184613af9565b92915050565b60006080820190506144106000830187613af9565b61441d6020830186613af9565b61442a60408301856142a1565b818103606083015261443c8184613ba3565b905095945050505050565b600060608201905061445c6000830186613af9565b61446960208301856142a1565b61447660408301846142a1565b949350505050565b600060208201905081810360008301526144988184613b1f565b905092915050565b60006020820190506144b56000830184613b94565b92915050565b600060208201905081810360008301526144d58184613c15565b905092915050565b600060408201905081810360008301526144f78185613c15565b9050818103602083015261450b8184613c15565b90509392505050565b6000608082019050818103600083015261452e8187613c15565b905081810360208301526145428186613c15565b905061455160408301856142a1565b81810360608301526145638184613c15565b905095945050505050565b600060808201905081810360008301526145888187613c15565b9050818103602083015261459c8186613c15565b90506145ab60408301856142a1565b6145b860608301846142a1565b95945050505050565b600060c08201905081810360008301526145db8189613c15565b905081810360208301526145ef8188613c15565b90506145fe60408301876142a1565b61460b60608301866142a1565b61461860808301856142a1565b61462560a08301846142a1565b979650505050505050565b6000604082019050818103600083015261464a8185613c15565b905061465960208301846142a1565b9392505050565b6000606082019050818103600083015261467a8186613c15565b905061468960208301856142a1565b61469660408301846142a1565b949350505050565b600060208201905081810360008301526146b781613c7f565b9050919050565b600060208201905081810360008301526146d781613cc5565b9050919050565b600060208201905081810360008301526146f781613d0b565b9050919050565b6000602082019050818103600083015261471781613d2e565b9050919050565b6000602082019050818103600083015261473781613d51565b9050919050565b6000602082019050818103600083015261475781613d97565b9050919050565b6000602082019050818103600083015261477781613dba565b9050919050565b6000602082019050818103600083015261479781613ddd565b9050919050565b600060208201905081810360008301526147b781613e00565b9050919050565b600060208201905081810360008301526147d781613e23565b9050919050565b600060208201905081810360008301526147f781613e46565b9050919050565b6000602082019050818103600083015261481781613e69565b9050919050565b6000602082019050818103600083015261483781613e8c565b9050919050565b6000602082019050818103600083015261485781613ed2565b9050919050565b6000602082019050818103600083015261487781613ef5565b9050919050565b6000602082019050818103600083015261489781613f18565b9050919050565b600060208201905081810360008301526148b781613f5e565b9050919050565b600060208201905081810360008301526148d781613fc7565b9050919050565b600060208201905081810360008301526148f781613fea565b9050919050565b600060208201905081810360008301526149178161400d565b9050919050565b6000602082019050818103600083015261493781614076565b9050919050565b6000602082019050818103600083015261495781614099565b9050919050565b6000602082019050818103600083015261497881846140bc565b905092915050565b6000602082019050818103600083015261499a81846141ef565b905092915050565b60006020820190506149b760008301846142a1565b92915050565b600060e0820190506149d2600083018a6142a1565b81810360208301526149e48189613c15565b905081810360408301526149f88188613c15565b9050614a0760608301876142a1565b614a1460808301866142a1565b614a2160a08301856142a1565b614a2e60c08301846142a1565b98975050505050505050565b6000604082019050614a4f60008301856142a1565b614a5c60208301846142a1565b9392505050565b6000614a6d614a7e565b9050614a798282614d4e565b919050565b6000604051905090565b600067ffffffffffffffff821115614aa357614aa2614eb4565b5b614aac82614ee3565b9050602081019050919050565b6000819050602082019050919050565b600081519050919050565b600081519050919050565b600081519050919050565b6000602082019050919050565b600082825260208201905092915050565b600082825260208201905092915050565b600081905092915050565b600082825260208201905092915050565b600082825260208201905092915050565b600081905092915050565b6000614b5c82614cd0565b9150614b6783614cd0565b9250827fffffffffffffffffffffffffffffffffffffffffffffffffffffffffffffffff03821115614b9c57614b9b614e27565b5b828201905092915050565b6000614bb282614cd0565b9150614bbd83614cd0565b925082614bcd57614bcc614e56565b5b828204905092915050565b6000614be382614cd0565b9150614bee83614cd0565b9250817fffffffffffffffffffffffffffffffffffffffffffffffffffffffffffffffff0483118215151615614c2757614c26614e27565b5b828202905092915050565b6000614c3d82614cd0565b9150614c4883614cd0565b925082821015614c5b57614c5a614e27565b5b828203905092915050565b6000614c7182614cb0565b9050919050565b60008115159050919050565b60007fffffffff0000000000000000000000000000000000000000000000000000000082169050919050565b600073ffffffffffffffffffffffffffffffffffffffff82169050919050565b6000819050919050565b82818337600083830152505050565b60005b83811015614d07578082015181840152602081019050614cec565b83811115614d16576000848401525b50505050565b60006002820490506001821680614d3457607f821691505b60208210811415614d4857614d47614e85565b5b50919050565b614d5782614ee3565b810181811067ffffffffffffffff82111715614d7657614d75614eb4565b5b80604052505050565b6000614d8a82614cd0565b91507fffffffffffffffffffffffffffffffffffffffffffffffffffffffffffffffff821415614dbd57614dbc614e27565b5b600182019050919050565b6000614dd382614dda565b9050919050565b6000614de582614ef4565b9050919050565b6000819050919050565b6000614e0182614cd0565b9150614e0c83614cd0565b925082614e1c57614e1b614e56565b5b828206905092915050565b7f4e487b7100000000000000000000000000000000000000000000000000000000600052601160045260246000fd5b7f4e487b7100000000000000000000000000000000000000000000000000000000600052601260045260246000fd5b7f4e487b7100000000000000000000000000000000000000000000000000000000600052602260045260246000fd5b7f4e487b7100000000000000000000000000000000000000000000000000000000600052604160045260246000fd5b6000601f19601f8301169050919050565b60008160601b9050919050565b7f5265766976616c20636f737473202e3030352065746865720000000000000000600082015250565b7f202d2d204e465420233a20000000000000000000000000000000000000000000600082015250565b7f4572726f723a2063686172616374657220697320646561642e204865616c746860008201527f2069736e277420676f696e6720746f2068656c70000000000000000000000000602082015250565b7f222c20226465736372697074696f6e223a20225468697320697320616e204e4660008201527f542074686174206c6574732070656f706c6520706c617920696e20746865206760208201527f616d65204d657461766572736521222c2022696d616765223a2022697066733a60408201527f2f2f000000000000000000000000000000000000000000000000000000000000606082015250565b7f4552433732313a207472616e7366657220746f206e6f6e20455243373231526560008201527f63656976657220696d706c656d656e7465720000000000000000000000000000602082015250565b7f4572726f723a20626f7373206d757374206861766520485020746f206174746160008201527f636b20626f73732e000000000000000000000000000000000000000000000000602082015250565b7f4552433732313a20746f6b656e20616c7265616479206d696e74656400000000600082015250565b7f2c20226d61785f76616c7565223a000000000000000000000000000000000000600082015250565b7f4552433732313a207472616e7366657220746f20746865207a65726f2061646460008201527f7265737300000000000000000000000000000000000000000000000000000000602082015250565b7f4552433732313a20617070726f766520746f2063616c6c657200000000000000600082015250565b7f4552433732313a206f70657261746f7220717565727920666f72206e6f6e657860008201527f697374656e7420746f6b656e0000000000000000000000000000000000000000602082015250565b7f4552433732313a20617070726f76652063616c6c6572206973206e6f74206f7760008201527f6e6572206e6f7220617070726f76656420666f7220616c6c0000000000000000602082015250565b7f4572726f723a20636861726163746572206d757374206265206465642e000000600082015250565b7f4552433732313a2062616c616e636520717565727920666f7220746865207a6560008201527f726f206164647265737300000000000000000000000000000000000000000000602082015250565b7f4552433732313a206f776e657220717565727920666f72206e6f6e657869737460008201527f656e7420746f6b656e0000000000000000000000000000000000000000000000602082015250565b7f4572726f723a20636861726163746572206d757374206861766520485020746f60008201527f2061747461636b20626f73732e00000000000000000000000000000000000000602082015250565b7f7d205d7d00000000000000000000000000000000000000000000000000000000600082015250565b7f4552433732313a206d696e7420746f20746865207a65726f2061646472657373600082015250565b7f4552433732313a20617070726f76656420717565727920666f72206e6f6e657860008201527f697374656e7420746f6b656e0000000000000000000000000000000000000000602082015250565b7f4552433732313a207472616e73666572206f6620746f6b656e2074686174206960008201527f73206e6f74206f776e0000000000000000000000000000000000000000000000602082015250565b7f7b226e616d65223a202200000000000000000000000000000000000000000000600082015250565b7f4552433732313a20617070726f76616c20746f2063757272656e74206f776e6560008201527f7200000000000000000000000000000000000000000000000000000000000000602082015250565b7f646174613a6170706c69636174696f6e2f6a736f6e3b6261736536342c000000600082015250565b50565b7f52657475726e696e67206368616e6765206661696c65642e0000000000000000600082015250565b7f4552433732313a207472616e736665722063616c6c6572206973206e6f74206f60008201527f776e6572206e6f7220617070726f766564000000000000000000000000000000602082015250565b7f4572726f723a20636861726163746572206d757374206e6f7420626520616c7260008201527f656164792061742066756c6c206865616c746800000000000000000000000000602082015250565b7f222c202261747472696275746573223a205b207b202274726169745f7479706560008201527f223a20224865616c746820506f696e7473222c202276616c7565223a20000000602082015250565b7f7d2c207b202274726169745f74797065223a202241747461636b2044616d616760008201527f65222c202276616c7565223a2000000000000000000000000000000000000000602082015250565b7f496e73756666696369656e742066756e64732073656e74000000000000000000600082015250565b7f437269742072617465206f7574206f6620626f756e6473000000000000000000600082015250565b6156ad81614c66565b81146156b857600080fd5b50565b6156c481614c78565b81146156cf57600080fd5b50565b6156db81614c84565b81146156e657600080fd5b50565b6156f281614cd0565b81146156fd57600080fd5b5056fe43616c63756c61746564206368616e676520746f2067697665206261636b2025734142434445464748494a4b4c4d4e4f505152535455565758595a6162636465666768696a6b6c6d6e6f707172737475767778797a303132333435363738392b2f426f73732061747461636b656420706c617965722e204e657720706c617965722068703a2025730a4d696e746564204e465420772f20746f6b656e496420257320616e6420636861726163746572496e6465782025730a506c6179657220772f206368617261637465722025732061626f757420746f2061747461636b2e2048617320257320485020616e6420257320414444616d6e2c20796f75206f76657273686f74207468657265206775792062792061626f7574202573a26469706673582212200995cfc15dac06486db387d5569b7dc6f4a6987273e0b1a49ba4c0972fbac36764736f6c63430008040033446f6e6520696e697469616c697a696e6720626f737320257320772f2048502025732c20696d67202573446f6e6520696e697469616c697a696e6720257320772f2048502025732c20257320417461636b2044616d6167652c20",
  "linkReferences": {},
  "deployedLinkReferences": {}
}